{
  "_format": "hh-sol-artifact-1",
  "contractName": "CrowdfundingV2",
  "sourceName": "contracts/CrowdfundingV2.sol",
  "abi": [
    {
      "inputs": [],
      "stateMutability": "nonpayable",
      "type": "constructor"
    },
    {
      "anonymous": false,
      "inputs": [
        {
          "indexed": true,
          "internalType": "uint256",
          "name": "campaignId",
          "type": "uint256"
        },
        {
          "indexed": true,
          "internalType": "address",
          "name": "creator",
          "type": "address"
        },
        {
          "indexed": false,
          "internalType": "string",
          "name": "title",
          "type": "string"
        },
        {
          "indexed": false,
          "internalType": "string",
          "name": "category",
          "type": "string"
        },
        {
          "indexed": false,
          "internalType": "uint256",
          "name": "goalAmount",
          "type": "uint256"
        },
        {
          "indexed": false,
          "internalType": "uint256",
          "name": "deadline",
          "type": "uint256"
        },
        {
          "indexed": false,
          "internalType": "uint256",
          "name": "milestoneCount",
          "type": "uint256"
        }
      ],
      "name": "CampaignCreated",
      "type": "event"
    },
    {
      "anonymous": false,
      "inputs": [
        {
          "indexed": true,
          "internalType": "uint256",
          "name": "campaignId",
          "type": "uint256"
        },
        {
          "indexed": true,
          "internalType": "address",
          "name": "contributor",
          "type": "address"
        },
        {
          "indexed": false,
          "internalType": "uint256",
          "name": "amount",
          "type": "uint256"
        }
      ],
      "name": "ContributionReceived",
      "type": "event"
    },
    {
      "anonymous": false,
      "inputs": [
        {
          "indexed": true,
          "internalType": "uint256",
          "name": "campaignId",
          "type": "uint256"
        },
        {
          "indexed": true,
          "internalType": "address",
          "name": "creator",
          "type": "address"
        },
        {
          "indexed": false,
          "internalType": "uint256",
          "name": "amount",
          "type": "uint256"
        }
      ],
      "name": "FundsWithdrawn",
      "type": "event"
    },
    {
      "anonymous": false,
      "inputs": [
        {
          "indexed": true,
          "internalType": "uint256",
          "name": "campaignId",
          "type": "uint256"
        },
        {
          "indexed": true,
          "internalType": "uint256",
          "name": "milestoneId",
          "type": "uint256"
        }
      ],
      "name": "MilestoneCompleted",
      "type": "event"
    },
    {
      "anonymous": false,
      "inputs": [
        {
          "indexed": true,
          "internalType": "uint256",
          "name": "campaignId",
          "type": "uint256"
        },
        {
          "indexed": true,
          "internalType": "uint256",
          "name": "milestoneId",
          "type": "uint256"
        },
        {
          "indexed": false,
          "internalType": "uint256",
          "name": "amount",
          "type": "uint256"
        }
      ],
      "name": "MilestoneReleased",
      "type": "event"
    },
    {
      "anonymous": false,
      "inputs": [
        {
          "indexed": true,
          "internalType": "uint256",
          "name": "campaignId",
          "type": "uint256"
        },
        {
          "indexed": true,
          "internalType": "uint256",
          "name": "milestoneId",
          "type": "uint256"
        },
        {
          "indexed": false,
          "internalType": "address",
          "name": "voter",
          "type": "address"
        },
        {
          "indexed": false,
          "internalType": "bool",
          "name": "approve",
          "type": "bool"
        },
        {
          "indexed": false,
          "internalType": "uint256",
          "name": "weight",
          "type": "uint256"
        }
      ],
      "name": "MilestoneVoted",
      "type": "event"
    },
    {
      "anonymous": false,
      "inputs": [
        {
          "indexed": true,
          "internalType": "uint256",
          "name": "campaignId",
          "type": "uint256"
        },
        {
          "indexed": true,
          "internalType": "address",
          "name": "contributor",
          "type": "address"
        },
        {
          "indexed": false,
          "internalType": "uint256",
          "name": "amount",
          "type": "uint256"
        }
      ],
      "name": "RefundIssued",
      "type": "event"
    },
    {
      "inputs": [
        {
          "internalType": "uint256",
          "name": "",
          "type": "uint256"
        }
      ],
      "name": "campaignIds",
      "outputs": [
        {
          "internalType": "uint256",
          "name": "",
          "type": "uint256"
        }
      ],
      "stateMutability": "view",
      "type": "function"
    },
    {
      "inputs": [
        {
          "internalType": "uint256",
          "name": "",
          "type": "uint256"
        }
      ],
      "name": "campaigns",
      "outputs": [
        {
          "internalType": "address",
          "name": "creator",
          "type": "address"
        },
        {
          "internalType": "string",
          "name": "title",
          "type": "string"
        },
        {
          "internalType": "string",
          "name": "description",
          "type": "string"
        },
        {
          "internalType": "string",
          "name": "category",
          "type": "string"
        },
        {
          "internalType": "string",
          "name": "imageUrl",
          "type": "string"
        },
        {
          "internalType": "uint256",
          "name": "goalAmount",
          "type": "uint256"
        },
        {
          "internalType": "uint256",
          "name": "deadline",
          "type": "uint256"
        },
        {
          "internalType": "uint256",
          "name": "amountRaised",
          "type": "uint256"
        },
        {
          "internalType": "bool",
          "name": "withdrawn",
          "type": "bool"
        },
        {
          "internalType": "bool",
          "name": "exists",
          "type": "bool"
        },
        {
          "internalType": "uint256",
          "name": "milestoneCount",
          "type": "uint256"
        }
      ],
      "stateMutability": "view",
      "type": "function"
    },
    {
      "inputs": [
        {
          "internalType": "uint256",
          "name": "_campaignId",
          "type": "uint256"
        },
        {
          "internalType": "uint256",
          "name": "_milestoneId",
          "type": "uint256"
        }
      ],
      "name": "completeMilestone",
      "outputs": [],
      "stateMutability": "nonpayable",
      "type": "function"
    },
    {
      "inputs": [
        {
          "internalType": "uint256",
          "name": "_campaignId",
          "type": "uint256"
        }
      ],
      "name": "contribute",
      "outputs": [],
      "stateMutability": "payable",
      "type": "function"
    },
    {
      "inputs": [
        {
          "internalType": "uint256",
          "name": "",
          "type": "uint256"
        },
        {
          "internalType": "address",
          "name": "",
          "type": "address"
        }
      ],
      "name": "contributions",
      "outputs": [
        {
          "internalType": "uint256",
          "name": "",
          "type": "uint256"
        }
      ],
      "stateMutability": "view",
      "type": "function"
    },
    {
      "inputs": [
        {
          "internalType": "string",
          "name": "_title",
          "type": "string"
        },
        {
          "internalType": "string",
          "name": "_description",
          "type": "string"
        },
        {
          "internalType": "string",
          "name": "_category",
          "type": "string"
        },
        {
          "internalType": "string",
          "name": "_imageUrl",
          "type": "string"
        },
        {
          "internalType": "uint256",
          "name": "_goalAmount",
          "type": "uint256"
        },
        {
          "internalType": "uint256",
          "name": "_durationInDays",
          "type": "uint256"
        },
        {
          "internalType": "string[]",
          "name": "_milestoneDescriptions",
          "type": "string[]"
        },
        {
          "internalType": "uint256[]",
          "name": "_milestoneAmounts",
          "type": "uint256[]"
        }
      ],
      "name": "createCampaign",
      "outputs": [
        {
          "internalType": "uint256",
          "name": "",
          "type": "uint256"
        }
      ],
      "stateMutability": "nonpayable",
      "type": "function"
    },
    {
      "inputs": [],
      "name": "getAllCampaignIds",
      "outputs": [
        {
          "internalType": "uint256[]",
          "name": "",
          "type": "uint256[]"
        }
      ],
      "stateMutability": "view",
      "type": "function"
    },
    {
      "inputs": [
        {
          "internalType": "uint256",
          "name": "_campaignId",
          "type": "uint256"
        }
      ],
      "name": "getAllMilestones",
      "outputs": [
        {
          "components": [
            {
              "internalType": "string",
              "name": "description",
              "type": "string"
            },
            {
              "internalType": "uint256",
              "name": "amount",
              "type": "uint256"
            },
            {
              "internalType": "bool",
              "name": "completed",
              "type": "bool"
            },
            {
              "internalType": "bool",
              "name": "released",
              "type": "bool"
            },
            {
              "internalType": "uint256",
              "name": "votesFor",
              "type": "uint256"
            },
            {
              "internalType": "uint256",
              "name": "votesAgainst",
              "type": "uint256"
            }
          ],
          "internalType": "struct CrowdfundingV2.Milestone[]",
          "name": "",
          "type": "tuple[]"
        }
      ],
      "stateMutability": "view",
      "type": "function"
    },
    {
      "inputs": [
        {
          "internalType": "uint256",
          "name": "_campaignId",
          "type": "uint256"
        }
      ],
      "name": "getCampaign",
      "outputs": [
        {
          "components": [
            {
              "internalType": "address",
              "name": "creator",
              "type": "address"
            },
            {
              "internalType": "string",
              "name": "title",
              "type": "string"
            },
            {
              "internalType": "string",
              "name": "description",
              "type": "string"
            },
            {
              "internalType": "string",
              "name": "category",
              "type": "string"
            },
            {
              "internalType": "string",
              "name": "imageUrl",
              "type": "string"
            },
            {
              "internalType": "uint256",
              "name": "goalAmount",
              "type": "uint256"
            },
            {
              "internalType": "uint256",
              "name": "deadline",
              "type": "uint256"
            },
            {
              "internalType": "uint256",
              "name": "amountRaised",
              "type": "uint256"
            },
            {
              "internalType": "bool",
              "name": "withdrawn",
              "type": "bool"
            },
            {
              "internalType": "bool",
              "name": "exists",
              "type": "bool"
            },
            {
              "internalType": "uint256",
              "name": "milestoneCount",
              "type": "uint256"
            }
          ],
          "internalType": "struct CrowdfundingV2.Campaign",
          "name": "",
          "type": "tuple"
        }
      ],
      "stateMutability": "view",
      "type": "function"
    },
    {
      "inputs": [],
      "name": "getContractBalance",
      "outputs": [
        {
          "internalType": "uint256",
          "name": "",
          "type": "uint256"
        }
      ],
      "stateMutability": "view",
      "type": "function"
    },
    {
      "inputs": [
        {
          "internalType": "uint256",
          "name": "_campaignId",
          "type": "uint256"
        },
        {
          "internalType": "address",
          "name": "_contributor",
          "type": "address"
        }
      ],
      "name": "getContribution",
      "outputs": [
        {
          "internalType": "uint256",
          "name": "",
          "type": "uint256"
        }
      ],
      "stateMutability": "view",
      "type": "function"
    },
    {
      "inputs": [
        {
          "internalType": "uint256",
          "name": "_campaignId",
          "type": "uint256"
        },
        {
          "internalType": "uint256",
          "name": "_milestoneId",
          "type": "uint256"
        }
      ],
      "name": "getMilestone",
      "outputs": [
        {
          "components": [
            {
              "internalType": "string",
              "name": "description",
              "type": "string"
            },
            {
              "internalType": "uint256",
              "name": "amount",
              "type": "uint256"
            },
            {
              "internalType": "bool",
              "name": "completed",
              "type": "bool"
            },
            {
              "internalType": "bool",
              "name": "released",
              "type": "bool"
            },
            {
              "internalType": "uint256",
              "name": "votesFor",
              "type": "uint256"
            },
            {
              "internalType": "uint256",
              "name": "votesAgainst",
              "type": "uint256"
            }
          ],
          "internalType": "struct CrowdfundingV2.Milestone",
          "name": "",
          "type": "tuple"
        }
      ],
      "stateMutability": "view",
      "type": "function"
    },
    {
      "inputs": [],
      "name": "getTotalCampaigns",
      "outputs": [
        {
          "internalType": "uint256",
          "name": "",
          "type": "uint256"
        }
      ],
      "stateMutability": "view",
      "type": "function"
    },
    {
      "inputs": [
        {
          "internalType": "uint256",
          "name": "_campaignId",
          "type": "uint256"
        },
        {
          "internalType": "uint256",
          "name": "_milestoneId",
          "type": "uint256"
        },
        {
          "internalType": "address",
          "name": "_voter",
          "type": "address"
        }
      ],
      "name": "hasVoted",
      "outputs": [
        {
          "internalType": "bool",
          "name": "",
          "type": "bool"
        }
      ],
      "stateMutability": "view",
      "type": "function"
    },
    {
      "inputs": [
        {
          "internalType": "uint256",
          "name": "_campaignId",
          "type": "uint256"
        }
      ],
      "name": "isGoalReached",
      "outputs": [
        {
          "internalType": "bool",
          "name": "",
          "type": "bool"
        }
      ],
      "stateMutability": "view",
      "type": "function"
    },
    {
      "inputs": [
        {
          "internalType": "uint256",
          "name": "",
          "type": "uint256"
        },
        {
          "internalType": "uint256",
          "name": "",
          "type": "uint256"
        },
        {
          "internalType": "address",
          "name": "",
          "type": "address"
        }
      ],
      "name": "milestoneVotes",
      "outputs": [
        {
          "internalType": "bool",
          "name": "",
          "type": "bool"
        }
      ],
      "stateMutability": "view",
      "type": "function"
    },
    {
      "inputs": [
        {
          "internalType": "uint256",
          "name": "",
          "type": "uint256"
        },
        {
          "internalType": "uint256",
          "name": "",
          "type": "uint256"
        }
      ],
      "name": "milestones",
      "outputs": [
        {
          "internalType": "string",
          "name": "description",
          "type": "string"
        },
        {
          "internalType": "uint256",
          "name": "amount",
          "type": "uint256"
        },
        {
          "internalType": "bool",
          "name": "completed",
          "type": "bool"
        },
        {
          "internalType": "bool",
          "name": "released",
          "type": "bool"
        },
        {
          "internalType": "uint256",
          "name": "votesFor",
          "type": "uint256"
        },
        {
          "internalType": "uint256",
          "name": "votesAgainst",
          "type": "uint256"
        }
      ],
      "stateMutability": "view",
      "type": "function"
    },
    {
      "inputs": [
        {
          "internalType": "uint256",
          "name": "_campaignId",
          "type": "uint256"
        }
      ],
      "name": "refund",
      "outputs": [],
      "stateMutability": "nonpayable",
      "type": "function"
    },
    {
      "inputs": [
        {
          "internalType": "uint256",
          "name": "_campaignId",
          "type": "uint256"
        },
        {
          "internalType": "uint256",
          "name": "_milestoneId",
          "type": "uint256"
        }
      ],
      "name": "releaseMilestone",
      "outputs": [],
      "stateMutability": "nonpayable",
      "type": "function"
    },
    {
      "inputs": [
        {
          "internalType": "uint256",
          "name": "_campaignId",
          "type": "uint256"
        },
        {
          "internalType": "uint256",
          "name": "_milestoneId",
          "type": "uint256"
        },
        {
          "internalType": "bool",
          "name": "_approve",
          "type": "bool"
        }
      ],
      "name": "voteOnMilestone",
      "outputs": [],
      "stateMutability": "nonpayable",
      "type": "function"
    },
    {
      "inputs": [
        {
          "internalType": "uint256",
          "name": "_campaignId",
          "type": "uint256"
        }
      ],
      "name": "withdrawFunds",
      "outputs": [],
      "stateMutability": "nonpayable",
      "type": "function"
    }
  ],
  "bytecode": "0x608060405234801561001057600080fd5b5060008055612e12806100246000396000f3fe60806040526004361061012a5760003560e01c80636f9fb98a116100ab578063c3bf775a1161006f578063c3bf775a146103a6578063dbaf0910146103c6578063e081dbf9146103e6578063e653dabd14610429578063f19603aa1461046a578063f326206b1461048a57600080fd5b80636f9fb98a146103065780638ed9895c14610319578063a0b2389b14610346578063b369359d14610373578063c1cbbca71461039357600080fd5b806316f43dd4116100f257806316f43dd4146102305780631c376c631461024f578063278ecde1146102815780633d891f59146102a15780635598f8cc146102d957600080fd5b8063041824961461012f5780630d39a1d31461015a5780630e783d6d146101b7578063141961bc146101d9578063155dd5ee14610210575b600080fd5b34801561013b57600080fd5b506101446104aa565b6040516101519190612442565b60405180910390f35b34801561016657600080fd5b506101a76101753660046124a2565b60009283526004602090815260408085209385529281528284206001600160a01b039290921684525290205460ff1690565b6040519015158152602001610151565b3480156101c357600080fd5b506101d76101d23660046124d7565b610502565b005b3480156101e557600080fd5b506101f96101f4366004612515565b6107d6565b6040516101519b9a99989796959493929190612574565b34801561021c57600080fd5b506101d761022b366004612515565b610a5c565b34801561023c57600080fd5b506005545b604051908152602001610151565b34801561025b57600080fd5b5061026f61026a366004612610565b610d83565b60405161015196959493929190612632565b34801561028d57600080fd5b506101d761029c366004612515565b610e53565b3480156102ad57600080fd5b506102416102bc36600461266e565b600260209081526000928352604080842090915290825290205481565b3480156102e557600080fd5b506102f96102f4366004612515565b6110a4565b604051610151919061269a565b34801561031257600080fd5b5047610241565b34801561032557600080fd5b50610339610334366004612610565b61140a565b60405161015191906127e3565b34801561035257600080fd5b50610366610361366004612515565b611543565b60405161015191906127fd565b34801561037f57600080fd5b5061024161038e366004612515565b61175a565b6101d76103a1366004612515565b61177b565b3480156103b257600080fd5b506102416103c1366004612a25565b6118f4565b3480156103d257600080fd5b506101d76103e1366004612610565b611ec9565b3480156103f257600080fd5b5061024161040136600461266e565b60009182526002602090815260408084206001600160a01b0393909316845291905290205490565b34801561043557600080fd5b506101a76104443660046124a2565b600460209081526000938452604080852082529284528284209052825290205460ff1681565b34801561047657600080fd5b506101a7610485366004612515565b6121b2565b34801561049657600080fd5b506101d76104a5366004612610565b61220a565b606060058054806020026020016040519081016040528092919081815260200182805480156104f857602002820191906000526020600020905b8154815260200190600101908083116104e4575b5050505050905090565b6000838152600160205260409020600801548390610100900460ff166105435760405162461bcd60e51b815260040161053a90612b2f565b60405180910390fd5b600084815260026020908152604080832033845290915290205484906105ab5760405162461bcd60e51b815260206004820152601a60248201527f4f6e6c7920636f6e7472696275746f72732063616e20766f7465000000000000604482015260640161053a565b6000858152600160205260409020600981015485106105dc5760405162461bcd60e51b815260040161053a90612b66565b60008681526003602090815260408083208884529091529020600281015460ff166106495760405162461bcd60e51b815260206004820152601b60248201527f4d696c6573746f6e65206e6f7420636f6d706c65746564207965740000000000604482015260640161053a565b6002810154610100900460ff16156106a35760405162461bcd60e51b815260206004820152601a60248201527f4d696c6573746f6e6520616c72656164792072656c6561736564000000000000604482015260640161053a565b6000878152600460209081526040808320898452825280832033845290915290205460ff16156107055760405162461bcd60e51b815260206004820152600d60248201526c105b1c9958591e481d9bdd1959609a1b604482015260640161053a565b6000878152600460209081526040808320898452825280832033808552908352818420805460ff191660011790558a845260028352818420908452909152902054851561076b57808260030160008282546107609190612ba7565b909155506107859050565b8082600401600082825461077f9190612ba7565b90915550505b604080513381528715156020820152908101829052879089907fc4034c86715a9b37c41bd89fdabb308d4cc0f2aca4a22eb6b311492fefdad743906060015b60405180910390a35050505050505050565b6001602081905260009182526040909120805491810180546001600160a01b039093169261080390612bba565b80601f016020809104026020016040519081016040528092919081815260200182805461082f90612bba565b801561087c5780601f106108515761010080835404028352916020019161087c565b820191906000526020600020905b81548152906001019060200180831161085f57829003601f168201915b50505050509080600201805461089190612bba565b80601f01602080910402602001604051908101604052809291908181526020018280546108bd90612bba565b801561090a5780601f106108df5761010080835404028352916020019161090a565b820191906000526020600020905b8154815290600101906020018083116108ed57829003601f168201915b50505050509080600301805461091f90612bba565b80601f016020809104026020016040519081016040528092919081815260200182805461094b90612bba565b80156109985780601f1061096d57610100808354040283529160200191610998565b820191906000526020600020905b81548152906001019060200180831161097b57829003601f168201915b5050505050908060040180546109ad90612bba565b80601f01602080910402602001604051908101604052809291908181526020018280546109d990612bba565b8015610a265780601f106109fb57610100808354040283529160200191610a26565b820191906000526020600020905b815481529060010190602001808311610a0957829003601f168201915b505050600584015460068501546007860154600887015460099097015495969295919450925060ff80831692610100900416908b565b6000818152600160205260409020600801548190610100900460ff16610a945760405162461bcd60e51b815260040161053a90612b2f565b6000828152600160205260409020600601548290421015610aef5760405162461bcd60e51b815260206004820152601560248201527443616d706169676e207374696c6c2061637469766560581b604482015260640161053a565b60008381526001602052604090205483906001600160a01b03163314610b275760405162461bcd60e51b815260040161053a90612bee565b6000848152600160205260409020600881015460ff1615610b8a5760405162461bcd60e51b815260206004820152601760248201527f46756e647320616c72656164792077697468647261776e000000000000000000604482015260640161053a565b806005015481600701541015610be25760405162461bcd60e51b815260206004820152601860248201527f46756e64696e6720676f616c206e6f7420726561636865640000000000000000604482015260640161053a565b6000816007015411610c2d5760405162461bcd60e51b81526020600482015260146024820152734e6f2066756e647320746f20776974686472617760601b604482015260640161053a565b600981015415610c8f5760405162461bcd60e51b815260206004820152602760248201527f557365206d696c6573746f6e652072656c6561736520666f722074686973206360448201526630b6b830b4b3b760c91b606482015260840161053a565b60088101805460ff19166001179055600781015481546040516000916001600160a01b03169083908381818185875af1925050503d8060008114610cef576040519150601f19603f3d011682016040523d82523d6000602084013e610cf4565b606091505b5050905080610d375760405162461bcd60e51b815260206004820152600f60248201526e151c985b9cd9995c8819985a5b1959608a1b604482015260640161053a565b82546040518381526001600160a01b039091169088907ff440aec6b52895984d061d622e6edeba6210f7c3e059be920663140c084560d79060200160405180910390a350505050505050565b6003602090815260009283526040808420909152908252902080548190610da990612bba565b80601f0160208091040260200160405190810160405280929190818152602001828054610dd590612bba565b8015610e225780601f10610df757610100808354040283529160200191610e22565b820191906000526020600020905b815481529060010190602001808311610e0557829003601f168201915b5050506001840154600285015460038601546004909601549495919460ff8083169550610100909204909116925086565b6000818152600160205260409020600801548190610100900460ff16610e8b5760405162461bcd60e51b815260040161053a90612b2f565b6000828152600160205260409020600601548290421015610ee65760405162461bcd60e51b815260206004820152601560248201527443616d706169676e207374696c6c2061637469766560581b604482015260640161053a565b60008381526001602052604090206005810154600782015410610f575760405162461bcd60e51b815260206004820152602360248201527f43616d706169676e20776173207375636365737366756c2c206e6f20726566756044820152626e647360e81b606482015260840161053a565b600084815260026020908152604080832033845290915290205480610fbe5760405162461bcd60e51b815260206004820152601960248201527f4e6f20636f6e747269627574696f6e20746f20726566756e6400000000000000604482015260640161053a565b60008581526002602090815260408083203380855292528083208390555183908381818185875af1925050503d8060008114611016576040519150601f19603f3d011682016040523d82523d6000602084013e61101b565b606091505b50509050806110655760405162461bcd60e51b81526020600482015260166024820152751499599d5b99081d1c985b9cd9995c8819985a5b195960521b604482015260640161053a565b604051828152339087907f7a482fdeb6bc9a1376f597068a214a7a39472bb2eff1b8cad21ba04f49ddca1b9060200160405180910390a3505050505050565b61110e60405180610160016040528060006001600160a01b0316815260200160608152602001606081526020016060815260200160608152602001600081526020016000815260200160008152602001600015158152602001600015158152602001600081525090565b6000828152600160205260409020600801548290610100900460ff166111465760405162461bcd60e51b815260040161053a90612b2f565b6000838152600160208181526040928390208351610160810190945280546001600160a01b0316845291820180549184019161118190612bba565b80601f01602080910402602001604051908101604052809291908181526020018280546111ad90612bba565b80156111fa5780601f106111cf576101008083540402835291602001916111fa565b820191906000526020600020905b8154815290600101906020018083116111dd57829003601f168201915b5050505050815260200160028201805461121390612bba565b80601f016020809104026020016040519081016040528092919081815260200182805461123f90612bba565b801561128c5780601f106112615761010080835404028352916020019161128c565b820191906000526020600020905b81548152906001019060200180831161126f57829003601f168201915b505050505081526020016003820180546112a590612bba565b80601f01602080910402602001604051908101604052809291908181526020018280546112d190612bba565b801561131e5780601f106112f35761010080835404028352916020019161131e565b820191906000526020600020905b81548152906001019060200180831161130157829003601f168201915b5050505050815260200160048201805461133790612bba565b80601f016020809104026020016040519081016040528092919081815260200182805461136390612bba565b80156113b05780601f10611385576101008083540402835291602001916113b0565b820191906000526020600020905b81548152906001019060200180831161139357829003601f168201915b5050509183525050600582015460208201526006820154604082015260078201546060820152600882015460ff8082161515608084015261010090910416151560a082015260099091015460c09091015291505b50919050565b6114476040518060c00160405280606081526020016000815260200160001515815260200160001515815260200160008152602001600081525090565b600083815260036020908152604080832085845290915290819020815160c0810190925280548290829061147a90612bba565b80601f01602080910402602001604051908101604052809291908181526020018280546114a690612bba565b80156114f35780601f106114c8576101008083540402835291602001916114f3565b820191906000526020600020905b8154815290600101906020018083116114d657829003601f168201915b505050918352505060018201546020820152600282015460ff8082161515604084015261010090910416151560608201526003820154608082015260049091015460a09091015290505b92915050565b6000818152600160205260409020600801546060908290610100900460ff1661157e5760405162461bcd60e51b815260040161053a90612b2f565b6000838152600160205260408120600981015490919067ffffffffffffffff8111156115ac576115ac61285f565b60405190808252806020026020018201604052801561161a57816020015b6116076040518060c00160405280606081526020016000815260200160001515815260200160001515815260200160008152602001600081525090565b8152602001906001900390816115ca5790505b50905060005b826009015481101561175157600086815260036020908152604080832084845290915290819020815160c0810190925280548290829061165f90612bba565b80601f016020809104026020016040519081016040528092919081815260200182805461168b90612bba565b80156116d85780601f106116ad576101008083540402835291602001916116d8565b820191906000526020600020905b8154815290600101906020018083116116bb57829003601f168201915b505050918352505060018201546020820152600282015460ff8082161515604084015261010090910416151560608201526003820154608082015260049091015460a090910152825183908390811061173357611733612c31565b6020026020010181905250808061174990612c47565b915050611620565b50949350505050565b6005818154811061176a57600080fd5b600091825260209091200154905081565b6000818152600160205260409020600801548190610100900460ff166117b35760405162461bcd60e51b815260040161053a90612b2f565b6000828152600160205260409020600601548290421061180a5760405162461bcd60e51b815260206004820152601260248201527110d85b5c185a59db881a185cc8195b99195960721b604482015260640161053a565b600034116118665760405162461bcd60e51b815260206004820152602360248201527f436f6e747269627574696f6e206d75737420626520677265617465722074686160448201526206e20360ec1b606482015260840161053a565b6000838152600160209081526040808320600283528184203385529092528220805491923492611897908490612ba7565b92505081905550348160070160008282546118b29190612ba7565b9091555050604051348152339085907f865c884d49c8cecaef108efb20f7d282f26c0f9b0d24dd48e5592d4e02ec658d9060200160405180910390a350505050565b60008085116119505760405162461bcd60e51b815260206004820152602260248201527f476f616c20616d6f756e74206d7573742062652067726561746572207468616e604482015261020360f41b606482015260840161053a565b600084116119a05760405162461bcd60e51b815260206004820152601f60248201527f4475726174696f6e206d757374206265206174206c6561737420312064617900604482015260640161053a565b61016d8411156119f25760405162461bcd60e51b815260206004820152601f60248201527f4475726174696f6e2063616e6e6f742065786365656420333635206461797300604482015260640161053a565b6000895111611a3b5760405162461bcd60e51b81526020600482015260156024820152745469746c652063616e6e6f7420626520656d70747960581b604482015260640161053a565b6000885111611a8c5760405162461bcd60e51b815260206004820152601b60248201527f4465736372697074696f6e2063616e6e6f7420626520656d7074790000000000604482015260640161053a565b825115611bef578151835114611ae45760405162461bcd60e51b815260206004820152601b60248201527f4d696c6573746f6e6520617272617973206d757374206d617463680000000000604482015260640161053a565b6000805b8351811015611b93576000848281518110611b0557611b05612c31565b602002602001015111611b5a5760405162461bcd60e51b815260206004820152601c60248201527f4d696c6573746f6e6520616d6f756e74206d757374206265203e203000000000604482015260640161053a565b838181518110611b6c57611b6c612c31565b602002602001015182611b7f9190612ba7565b915080611b8b81612c47565b915050611ae8565b50858114611bed5760405162461bcd60e51b815260206004820152602160248201527f4d696c6573746f6e6520616d6f756e7473206d75737420657175616c20676f616044820152601b60fa1b606482015260840161053a565b505b6000611bfe8562015180612c60565b611c089042612ba7565b6000805491925080611c1983612c47565b909155505060008054604080516101608101825233815260208082018f81528284018f9052606083018e9052608083018d905260a083018c905260c0830187905260e083018690526101008301869052600161012084018190528a516101408501528587529182905292909420815181546001600160a01b0319166001600160a01b0390911617815591519293909290820190611cb69082612cc6565b5060408201516002820190611ccb9082612cc6565b5060608201516003820190611ce09082612cc6565b5060808201516004820190611cf59082612cc6565b5060a0820151600582015560c0820151600682015560e082015160078201556101008083015160088301805461012086015161ffff1990911692151561ff001916929092179115159092021790556101409091015160099091015560005b8551811015611e46576040518060c00160405280878381518110611d7957611d79612c31565b60200260200101518152602001868381518110611d9857611d98612c31565b602090810291909101810151825260008282018190526040808401829052606084018290526080909301819052858152600382528281208582529091522081518190611de49082612cc6565b50602082015160018201556040820151600282018054606085015115156101000261ff00199315159390931661ffff19909116179190911790556080820151600382015560a09091015160049091015580611e3e81612c47565b915050611d53565b506005819080600181540180825580915050600190039060005260206000200160009091909190915055336001600160a01b0316817fd480b74e35dd5c1829b9f29cd39f2ebdeb02598aee4fc0220c30371e2d356f358d8c8b878b51604051611eb3959493929190612d86565b60405180910390a39a9950505050505050505050565b6000828152600160205260409020600801548290610100900460ff16611f015760405162461bcd60e51b815260040161053a90612b2f565b60008381526001602052604090205483906001600160a01b03163314611f395760405162461bcd60e51b815260040161053a90612bee565b600084815260016020526040902060098101548410611f6a5760405162461bcd60e51b815260040161053a90612b66565b806005015481600701541015611fb55760405162461bcd60e51b815260206004820152601060248201526f11dbd85b081b9bdd081c995858da195960821b604482015260640161053a565b60008581526003602090815260408083208784529091529020600281015460ff166120225760405162461bcd60e51b815260206004820152601760248201527f4d696c6573746f6e65206e6f7420636f6d706c65746564000000000000000000604482015260640161053a565b6002810154610100900460ff161561206f5760405162461bcd60e51b815260206004820152601060248201526f105b1c9958591e481c995b19585cd95960821b604482015260640161053a565b80600401548160030154116120d55760405162461bcd60e51b815260206004820152602660248201527f4d696c6573746f6e65206e6f7420617070726f76656420627920636f6e7472696044820152656275746f727360d01b606482015260840161053a565b60028101805461ff001916610100179055600181015482546040516000916001600160a01b03169083908381818185875af1925050503d8060008114612137576040519150601f19603f3d011682016040523d82523d6000602084013e61213c565b606091505b505090508061217f5760405162461bcd60e51b815260206004820152600f60248201526e151c985b9cd9995c8819985a5b1959608a1b604482015260640161053a565b86887fd33fcd27cbfb73a2d9058c968b560ccb306500bf536133802048489ecc7355e9846040516107c491815260200190565b6000818152600160205260408120600801548290610100900460ff166121ea5760405162461bcd60e51b815260040161053a90612b2f565b505060009081526001602052604090206005810154600790910154101590565b6000828152600160205260409020600801548290610100900460ff166122425760405162461bcd60e51b815260040161053a90612b2f565b60008381526001602052604090205483906001600160a01b0316331461227a5760405162461bcd60e51b815260040161053a90612bee565b6000848152600160205260409020600981015484106122ab5760405162461bcd60e51b815260040161053a90612b66565b8060050154816007015410156122f65760405162461bcd60e51b815260206004820152601060248201526f11dbd85b081b9bdd081c995858da195960821b604482015260640161053a565b60008581526003602090815260408083208784529091529020600281015460ff16156123645760405162461bcd60e51b815260206004820152601b60248201527f4d696c6573746f6e6520616c726561647920636f6d706c657465640000000000604482015260640161053a565b84156123fe57600086815260036020526040812090612384600188612dc9565b8152602081019190915260400160002060020154610100900460ff166123fe5760405162461bcd60e51b815260206004820152602960248201527f50726576696f7573206d696c6573746f6e65206d7573742062652072656c65616044820152681cd95908199a5c9cdd60ba1b606482015260840161053a565b60028101805460ff19166001179055604051859087907f1b7218c0ac23ea9cbe4df603d2b340fbf469a115b73ea3d11460727f445d6be190600090a3505050505050565b6020808252825182820181905260009190848201906040850190845b8181101561247a5783518352928401929184019160010161245e565b50909695505050505050565b80356001600160a01b038116811461249d57600080fd5b919050565b6000806000606084860312156124b757600080fd5b83359250602084013591506124ce60408501612486565b90509250925092565b6000806000606084860312156124ec57600080fd5b83359250602084013591506040840135801515811461250a57600080fd5b809150509250925092565b60006020828403121561252757600080fd5b5035919050565b6000815180845260005b8181101561255457602081850181015186830182015201612538565b506000602082860101526020601f19601f83011685010191505092915050565b6001600160a01b038c168152610160602082018190526000906125998382018e61252e565b905082810360408401526125ad818d61252e565b905082810360608401526125c1818c61252e565b905082810360808401526125d5818b61252e565b60a0840199909952505060c081019590955260e085019390935290151561010084015215156101208301526101409091015295945050505050565b6000806040838503121561262357600080fd5b50508035926020909101359150565b60c08152600061264560c083018961252e565b60208301979097525093151560408501529115156060840152608083015260a090910152919050565b6000806040838503121561268157600080fd5b8235915061269160208401612486565b90509250929050565b602081526126b46020820183516001600160a01b03169052565b600060208301516101608060408501526126d261018085018361252e565b91506040850151601f19808685030160608701526126f0848361252e565b9350606087015191508086850301608087015261270d848361252e565b935060808701519150808685030160a08701525061272b838261252e565b92505060a085015160c085015260c085015160e085015260e08501516101008181870152808701519150506101206127668187018315159052565b860151905061014061277b8682018315159052565b959095015193019290925250919050565b6000815160c084526127a160c085018261252e565b9050602083015160208501526040830151151560408501526060830151151560608501526080830151608085015260a083015160a08501528091505092915050565b6020815260006127f6602083018461278c565b9392505050565b6000602080830181845280855180835260408601915060408160051b870101925083870160005b8281101561285257603f1988860301845261284085835161278c565b94509285019290850190600101612824565b5092979650505050505050565b634e487b7160e01b600052604160045260246000fd5b604051601f8201601f1916810167ffffffffffffffff8111828210171561289e5761289e61285f565b604052919050565b600082601f8301126128b757600080fd5b813567ffffffffffffffff8111156128d1576128d161285f565b6128e4601f8201601f1916602001612875565b8181528460208386010111156128f957600080fd5b816020850160208301376000918101602001919091529392505050565b600067ffffffffffffffff8211156129305761293061285f565b5060051b60200190565b600082601f83011261294b57600080fd5b8135602061296061295b83612916565b612875565b82815260059290921b8401810191818101908684111561297f57600080fd5b8286015b848110156129bf57803567ffffffffffffffff8111156129a35760008081fd5b6129b18986838b01016128a6565b845250918301918301612983565b509695505050505050565b600082601f8301126129db57600080fd5b813560206129eb61295b83612916565b82815260059290921b84018101918181019086841115612a0a57600080fd5b8286015b848110156129bf5780358352918301918301612a0e565b600080600080600080600080610100898b031215612a4257600080fd5b883567ffffffffffffffff80821115612a5a57600080fd5b612a668c838d016128a6565b995060208b0135915080821115612a7c57600080fd5b612a888c838d016128a6565b985060408b0135915080821115612a9e57600080fd5b612aaa8c838d016128a6565b975060608b0135915080821115612ac057600080fd5b612acc8c838d016128a6565b965060808b0135955060a08b0135945060c08b0135915080821115612af057600080fd5b612afc8c838d0161293a565b935060e08b0135915080821115612b1257600080fd5b50612b1f8b828c016129ca565b9150509295985092959890939650565b60208082526017908201527f43616d706169676e20646f6573206e6f74206578697374000000000000000000604082015260600190565b602080825260119082015270496e76616c6964206d696c6573746f6e6560781b604082015260600190565b634e487b7160e01b600052601160045260246000fd5b8082018082111561153d5761153d612b91565b600181811c90821680612bce57607f821691505b60208210810361140457634e487b7160e01b600052602260045260246000fd5b60208082526023908201527f4f6e6c792063616d706169676e2063726561746f722063616e2063616c6c207460408201526268697360e81b606082015260800190565b634e487b7160e01b600052603260045260246000fd5b600060018201612c5957612c59612b91565b5060010190565b808202811582820484141761153d5761153d612b91565b601f821115612cc157600081815260208120601f850160051c81016020861015612c9e5750805b601f850160051c820191505b81811015612cbd57828155600101612caa565b5050505b505050565b815167ffffffffffffffff811115612ce057612ce061285f565b612cf481612cee8454612bba565b84612c77565b602080601f831160018114612d295760008415612d115750858301515b600019600386901b1c1916600185901b178555612cbd565b600085815260208120601f198616915b82811015612d5857888601518255948401946001909101908401612d39565b5085821015612d765787850151600019600388901b60f8161c191681555b5050505050600190811b01905550565b60a081526000612d9960a083018861252e565b8281036020840152612dab818861252e565b60408401969096525050606081019290925260809091015292915050565b8181038181111561153d5761153d612b9156fea2646970667358221220c03db8688639fa0996b313903f078f04a4ef94afba4f4c11c318021e7080461564736f6c63430008140033",
  "linkReferences": {},
  "deployedLinkReferences": {}
}