{
  "_format": "hh-sol-artifact-1",
  "contractName": "Crowdfunding",
  "sourceName": "contracts/Crowdfunding.sol",
  "abi": [
    {
      "inputs": [],
      "stateMutability": "nonpayable",
      "type": "constructor"
    },
    {
      "anonymous": false,
      "inputs": [
        {
          "indexed": true,
          "internalType": "uint256",
          "name": "campaignId",
          "type": "uint256"
        },
        {
          "indexed": true,
          "internalType": "address",
          "name": "creator",
          "type": "address"
        },
        {
          "indexed": false,
          "internalType": "string",
          "name": "title",
          "type": "string"
        },
        {
          "indexed": false,
          "internalType": "uint256",
          "name": "goalAmount",
          "type": "uint256"
        },
        {
          "indexed": false,
          "internalType": "uint256",
          "name": "deadline",
          "type": "uint256"
        }
      ],
      "name": "CampaignCreated",
      "type": "event"
    },
    {
      "anonymous": false,
      "inputs": [
        {
          "indexed": true,
          "internalType": "uint256",
          "name": "campaignId",
          "type": "uint256"
        },
        {
          "indexed": true,
          "internalType": "address",
          "name": "contributor",
          "type": "address"
        },
        {
          "indexed": false,
          "internalType": "uint256",
          "name": "amount",
          "type": "uint256"
        }
      ],
      "name": "ContributionReceived",
      "type": "event"
    },
    {
      "anonymous": false,
      "inputs": [
        {
          "indexed": true,
          "internalType": "uint256",
          "name": "campaignId",
          "type": "uint256"
        },
        {
          "indexed": true,
          "internalType": "address",
          "name": "creator",
          "type": "address"
        },
        {
          "indexed": false,
          "internalType": "uint256",
          "name": "amount",
          "type": "uint256"
        }
      ],
      "name": "FundsWithdrawn",
      "type": "event"
    },
    {
      "anonymous": false,
      "inputs": [
        {
          "indexed": true,
          "internalType": "uint256",
          "name": "campaignId",
          "type": "uint256"
        },
        {
          "indexed": true,
          "internalType": "address",
          "name": "contributor",
          "type": "address"
        },
        {
          "indexed": false,
          "internalType": "uint256",
          "name": "amount",
          "type": "uint256"
        }
      ],
      "name": "RefundIssued",
      "type": "event"
    },
    {
      "inputs": [
        {
          "internalType": "uint256",
          "name": "",
          "type": "uint256"
        }
      ],
      "name": "campaignIds",
      "outputs": [
        {
          "internalType": "uint256",
          "name": "",
          "type": "uint256"
        }
      ],
      "stateMutability": "view",
      "type": "function"
    },
    {
      "inputs": [
        {
          "internalType": "uint256",
          "name": "",
          "type": "uint256"
        }
      ],
      "name": "campaigns",
      "outputs": [
        {
          "internalType": "address",
          "name": "creator",
          "type": "address"
        },
        {
          "internalType": "string",
          "name": "title",
          "type": "string"
        },
        {
          "internalType": "string",
          "name": "description",
          "type": "string"
        },
        {
          "internalType": "uint256",
          "name": "goalAmount",
          "type": "uint256"
        },
        {
          "internalType": "uint256",
          "name": "deadline",
          "type": "uint256"
        },
        {
          "internalType": "uint256",
          "name": "amountRaised",
          "type": "uint256"
        },
        {
          "internalType": "bool",
          "name": "withdrawn",
          "type": "bool"
        },
        {
          "internalType": "bool",
          "name": "exists",
          "type": "bool"
        }
      ],
      "stateMutability": "view",
      "type": "function"
    },
    {
      "inputs": [
        {
          "internalType": "uint256",
          "name": "_campaignId",
          "type": "uint256"
        }
      ],
      "name": "contribute",
      "outputs": [],
      "stateMutability": "payable",
      "type": "function"
    },
    {
      "inputs": [
        {
          "internalType": "uint256",
          "name": "",
          "type": "uint256"
        },
        {
          "internalType": "address",
          "name": "",
          "type": "address"
        }
      ],
      "name": "contributions",
      "outputs": [
        {
          "internalType": "uint256",
          "name": "",
          "type": "uint256"
        }
      ],
      "stateMutability": "view",
      "type": "function"
    },
    {
      "inputs": [
        {
          "internalType": "string",
          "name": "_title",
          "type": "string"
        },
        {
          "internalType": "string",
          "name": "_description",
          "type": "string"
        },
        {
          "internalType": "uint256",
          "name": "_goalAmount",
          "type": "uint256"
        },
        {
          "internalType": "uint256",
          "name": "_durationInDays",
          "type": "uint256"
        }
      ],
      "name": "createCampaign",
      "outputs": [
        {
          "internalType": "uint256",
          "name": "",
          "type": "uint256"
        }
      ],
      "stateMutability": "nonpayable",
      "type": "function"
    },
    {
      "inputs": [],
      "name": "getAllCampaignIds",
      "outputs": [
        {
          "internalType": "uint256[]",
          "name": "",
          "type": "uint256[]"
        }
      ],
      "stateMutability": "view",
      "type": "function"
    },
    {
      "inputs": [
        {
          "internalType": "uint256",
          "name": "_campaignId",
          "type": "uint256"
        }
      ],
      "name": "getCampaign",
      "outputs": [
        {
          "components": [
            {
              "internalType": "address",
              "name": "creator",
              "type": "address"
            },
            {
              "internalType": "string",
              "name": "title",
              "type": "string"
            },
            {
              "internalType": "string",
              "name": "description",
              "type": "string"
            },
            {
              "internalType": "uint256",
              "name": "goalAmount",
              "type": "uint256"
            },
            {
              "internalType": "uint256",
              "name": "deadline",
              "type": "uint256"
            },
            {
              "internalType": "uint256",
              "name": "amountRaised",
              "type": "uint256"
            },
            {
              "internalType": "bool",
              "name": "withdrawn",
              "type": "bool"
            },
            {
              "internalType": "bool",
              "name": "exists",
              "type": "bool"
            }
          ],
          "internalType": "struct Crowdfunding.Campaign",
          "name": "",
          "type": "tuple"
        }
      ],
      "stateMutability": "view",
      "type": "function"
    },
    {
      "inputs": [],
      "name": "getContractBalance",
      "outputs": [
        {
          "internalType": "uint256",
          "name": "",
          "type": "uint256"
        }
      ],
      "stateMutability": "view",
      "type": "function"
    },
    {
      "inputs": [
        {
          "internalType": "uint256",
          "name": "_campaignId",
          "type": "uint256"
        },
        {
          "internalType": "address",
          "name": "_contributor",
          "type": "address"
        }
      ],
      "name": "getContribution",
      "outputs": [
        {
          "internalType": "uint256",
          "name": "",
          "type": "uint256"
        }
      ],
      "stateMutability": "view",
      "type": "function"
    },
    {
      "inputs": [],
      "name": "getTotalCampaigns",
      "outputs": [
        {
          "internalType": "uint256",
          "name": "",
          "type": "uint256"
        }
      ],
      "stateMutability": "view",
      "type": "function"
    },
    {
      "inputs": [
        {
          "internalType": "uint256",
          "name": "_campaignId",
          "type": "uint256"
        }
      ],
      "name": "isGoalReached",
      "outputs": [
        {
          "internalType": "bool",
          "name": "",
          "type": "bool"
        }
      ],
      "stateMutability": "view",
      "type": "function"
    },
    {
      "inputs": [
        {
          "internalType": "uint256",
          "name": "_campaignId",
          "type": "uint256"
        }
      ],
      "name": "refund",
      "outputs": [],
      "stateMutability": "nonpayable",
      "type": "function"
    },
    {
      "inputs": [
        {
          "internalType": "uint256",
          "name": "_campaignId",
          "type": "uint256"
        }
      ],
      "name": "withdrawFunds",
      "outputs": [],
      "stateMutability": "nonpayable",
      "type": "function"
    }
  ],
  "bytecode": "0x608060405234801561001057600080fd5b5060008055611650806100246000396000f3fe6080604052600436106100c25760003560e01c80635598f8cc1161007f578063b369359d11610059578063b369359d1461021f578063c1cbbca71461023f578063e081dbf914610252578063f19603aa1461027257600080fd5b80635598f8cc146101bf5780636f9fb98a146101ec578063a318f269146101ff57600080fd5b806304182496146100c7578063141961bc146100f2578063155dd5ee1461012657806316f43dd414610148578063278ecde1146101675780633d891f5914610187575b600080fd5b3480156100d357600080fd5b506100dc6102a2565b6040516100e99190611128565b60405180910390f35b3480156100fe57600080fd5b5061011261010d36600461116c565b6102fa565b6040516100e99897969594939291906111cb565b34801561013257600080fd5b5061014661014136600461116c565b61045d565b005b34801561015457600080fd5b506003545b6040519081526020016100e9565b34801561017357600080fd5b5061014661018236600461116c565b610767565b34801561019357600080fd5b506101596101a2366004611234565b600260209081526000928352604080842090915290825290205481565b3480156101cb57600080fd5b506101df6101da36600461116c565b6109b8565b6040516100e99190611270565b3480156101f857600080fd5b5047610159565b34801561020b57600080fd5b5061015961021a3660046113ae565b610bdb565b34801561022b57600080fd5b5061015961023a36600461116c565b610f0c565b61014661024d36600461116c565b610f2d565b34801561025e57600080fd5b5061015961026d366004611234565b6110a6565b34801561027e57600080fd5b5061029261028d36600461116c565b6110d0565b60405190151581526020016100e9565b606060038054806020026020016040519081016040528092919081815260200182805480156102f057602002820191906000526020600020905b8154815260200190600101908083116102dc575b5050505050905090565b6001602081905260009182526040909120805491810180546001600160a01b039093169261032790611422565b80601f016020809104026020016040519081016040528092919081815260200182805461035390611422565b80156103a05780601f10610375576101008083540402835291602001916103a0565b820191906000526020600020905b81548152906001019060200180831161038357829003601f168201915b5050505050908060020180546103b590611422565b80601f01602080910402602001604051908101604052809291908181526020018280546103e190611422565b801561042e5780601f106104035761010080835404028352916020019161042e565b820191906000526020600020905b81548152906001019060200180831161041157829003601f168201915b505050506003830154600484015460058501546006909501549394919390925060ff8082169161010090041688565b6000818152600160205260409020600601548190610100900460ff1661049e5760405162461bcd60e51b815260040161049590611456565b60405180910390fd5b60008281526001602052604090206004015482904210156104f95760405162461bcd60e51b815260206004820152601560248201527443616d706169676e207374696c6c2061637469766560581b6044820152606401610495565b60008381526001602052604090205483906001600160a01b0316331461056d5760405162461bcd60e51b815260206004820152602360248201527f4f6e6c792063616d706169676e2063726561746f722063616e2063616c6c207460448201526268697360e81b6064820152608401610495565b6000848152600160205260409020600681015460ff16156105d05760405162461bcd60e51b815260206004820152601760248201527f46756e647320616c72656164792077697468647261776e0000000000000000006044820152606401610495565b8060030154816005015410156106285760405162461bcd60e51b815260206004820152601860248201527f46756e64696e6720676f616c206e6f74207265616368656400000000000000006044820152606401610495565b60008160050154116106735760405162461bcd60e51b81526020600482015260146024820152734e6f2066756e647320746f20776974686472617760601b6044820152606401610495565b60068101805460ff19166001179055600581015481546040516000916001600160a01b03169083908381818185875af1925050503d80600081146106d3576040519150601f19603f3d011682016040523d82523d6000602084013e6106d8565b606091505b505090508061071b5760405162461bcd60e51b815260206004820152600f60248201526e151c985b9cd9995c8819985a5b1959608a1b6044820152606401610495565b82546040518381526001600160a01b039091169088907ff440aec6b52895984d061d622e6edeba6210f7c3e059be920663140c084560d79060200160405180910390a350505050505050565b6000818152600160205260409020600601548190610100900460ff1661079f5760405162461bcd60e51b815260040161049590611456565b60008281526001602052604090206004015482904210156107fa5760405162461bcd60e51b815260206004820152601560248201527443616d706169676e207374696c6c2061637469766560581b6044820152606401610495565b6000838152600160205260409020600381015460058201541061086b5760405162461bcd60e51b815260206004820152602360248201527f43616d706169676e20776173207375636365737366756c2c206e6f20726566756044820152626e647360e81b6064820152608401610495565b6000848152600260209081526040808320338452909152902054806108d25760405162461bcd60e51b815260206004820152601960248201527f4e6f20636f6e747269627574696f6e20746f20726566756e64000000000000006044820152606401610495565b60008581526002602090815260408083203380855292528083208390555183908381818185875af1925050503d806000811461092a576040519150601f19603f3d011682016040523d82523d6000602084013e61092f565b606091505b50509050806109795760405162461bcd60e51b81526020600482015260166024820152751499599d5b99081d1c985b9cd9995c8819985a5b195960521b6044820152606401610495565b604051828152339087907f7a482fdeb6bc9a1376f597068a214a7a39472bb2eff1b8cad21ba04f49ddca1b9060200160405180910390a3505050505050565b610a0d60405180610100016040528060006001600160a01b0316815260200160608152602001606081526020016000815260200160008152602001600081526020016000151581526020016000151581525090565b6000828152600160205260409020600601548290610100900460ff16610a455760405162461bcd60e51b815260040161049590611456565b6000838152600160208181526040928390208351610100810190945280546001600160a01b03168452918201805491840191610a8090611422565b80601f0160208091040260200160405190810160405280929190818152602001828054610aac90611422565b8015610af95780601f10610ace57610100808354040283529160200191610af9565b820191906000526020600020905b815481529060010190602001808311610adc57829003601f168201915b50505050508152602001600282018054610b1290611422565b80601f0160208091040260200160405190810160405280929190818152602001828054610b3e90611422565b8015610b8b5780601f10610b6057610100808354040283529160200191610b8b565b820191906000526020600020905b815481529060010190602001808311610b6e57829003601f168201915b505050918352505060038201546020820152600482015460408201526005820154606082015260069091015460ff8082161515608084015261010090910416151560a09091015291505b50919050565b6000808311610c375760405162461bcd60e51b815260206004820152602260248201527f476f616c20616d6f756e74206d7573742062652067726561746572207468616e604482015261020360f41b6064820152608401610495565b60008211610c875760405162461bcd60e51b815260206004820152601f60248201527f4475726174696f6e206d757374206265206174206c65617374203120646179006044820152606401610495565b61016d821115610cd95760405162461bcd60e51b815260206004820152601f60248201527f4475726174696f6e2063616e6e6f7420657863656564203336352064617973006044820152606401610495565b6000855111610d225760405162461bcd60e51b81526020600482015260156024820152745469746c652063616e6e6f7420626520656d70747960581b6044820152606401610495565b6000845111610d735760405162461bcd60e51b815260206004820152601b60248201527f4465736372697074696f6e2063616e6e6f7420626520656d70747900000000006044820152606401610495565b6000610d8283620151806114a3565b610d8c90426114ba565b6000805491925080610d9d836114cd565b909155505060008054604080516101008101825233815260208082018b81528284018b9052606083018a90526080830187905260a0830186905260c08301869052600160e084018190528587529182905292909420815181546001600160a01b0319166001600160a01b0390911617815591519293909290820190610e229082611535565b5060408201516002820190610e379082611535565b5060608201516003808301919091556080830151600483015560a0830151600583015560c08301516006909201805460e09094015115156101000261ff00199315159390931661ffff19909416939093179190911790915580546001810182556000919091527fc2575a0e9e593c00f959f8c92f12db2869c3395a3b0502d05e2516446f71f85b01819055604051339082907fdc26653af5b99b2da33e2ad69ee6600d9aeccc82b034501db4338309615ca23890610efa908b908a9088906115f5565b60405180910390a39695505050505050565b60038181548110610f1c57600080fd5b600091825260209091200154905081565b6000818152600160205260409020600601548190610100900460ff16610f655760405162461bcd60e51b815260040161049590611456565b60008281526001602052604090206004015482904210610fbc5760405162461bcd60e51b815260206004820152601260248201527110d85b5c185a59db881a185cc8195b99195960721b6044820152606401610495565b600034116110185760405162461bcd60e51b815260206004820152602360248201527f436f6e747269627574696f6e206d75737420626520677265617465722074686160448201526206e20360ec1b6064820152608401610495565b60008381526001602090815260408083206002835281842033855290925282208054919234926110499084906114ba565b925050819055503481600501600082825461106491906114ba565b9091555050604051348152339085907f865c884d49c8cecaef108efb20f7d282f26c0f9b0d24dd48e5592d4e02ec658d9060200160405180910390a350505050565b60008281526002602090815260408083206001600160a01b03851684529091529020545b92915050565b6000818152600160205260408120600601548290610100900460ff166111085760405162461bcd60e51b815260040161049590611456565b505060009081526001602052604090206003810154600590910154101590565b6020808252825182820181905260009190848201906040850190845b8181101561116057835183529284019291840191600101611144565b50909695505050505050565b60006020828403121561117e57600080fd5b5035919050565b6000815180845260005b818110156111ab5760208185018101518683018201520161118f565b506000602082860101526020601f19601f83011685010191505092915050565b6001600160a01b0389168152610100602082018190526000906111f08382018b611185565b90508281036040840152611204818a611185565b60608401989098525050608081019490945260a0840192909252151560c0830152151560e0909101529392505050565b6000806040838503121561124757600080fd5b8235915060208301356001600160a01b038116811461126557600080fd5b809150509250929050565b602080825282516001600160a01b03168282015282015161010060408301819052600091906112a3610120850183611185565b91506040850151601f198584030160608601526112c08382611185565b92505060608501516080850152608085015160a085015260a085015160c085015260c08501516112f460e086018215159052565b5060e0850151801515858301525090949350505050565b634e487b7160e01b600052604160045260246000fd5b600082601f83011261133257600080fd5b813567ffffffffffffffff8082111561134d5761134d61130b565b604051601f8301601f19908116603f011681019082821181831017156113755761137561130b565b8160405283815286602085880101111561138e57600080fd5b836020870160208301376000602085830101528094505050505092915050565b600080600080608085870312156113c457600080fd5b843567ffffffffffffffff808211156113dc57600080fd5b6113e888838901611321565b955060208701359150808211156113fe57600080fd5b5061140b87828801611321565b949794965050505060408301359260600135919050565b600181811c9082168061143657607f821691505b602082108103610bd557634e487b7160e01b600052602260045260246000fd5b60208082526017908201527f43616d706169676e20646f6573206e6f74206578697374000000000000000000604082015260600190565b634e487b7160e01b600052601160045260246000fd5b80820281158282048414176110ca576110ca61148d565b808201808211156110ca576110ca61148d565b6000600182016114df576114df61148d565b5060010190565b601f82111561153057600081815260208120601f850160051c8101602086101561150d5750805b601f850160051c820191505b8181101561152c57828155600101611519565b5050505b505050565b815167ffffffffffffffff81111561154f5761154f61130b565b6115638161155d8454611422565b846114e6565b602080601f83116001811461159857600084156115805750858301515b600019600386901b1c1916600185901b17855561152c565b600085815260208120601f198616915b828110156115c7578886015182559484019460019091019084016115a8565b50858210156115e55787850151600019600388901b60f8161c191681555b5050505050600190811b01905550565b6060815260006116086060830186611185565b6020830194909452506040015291905056fea2646970667358221220b9c51631df3e2098a95f204e285d577a0456ea23acb56449ba26b614a284e51a64736f6c63430008140033",
  "linkReferences": {},
  "deployedLinkReferences": {}
}